{
  "contractName": "Lottery",
  "abi": [
    {
      "inputs": [],
      "stateMutability": "nonpayable",
      "type": "constructor"
    },
    {
      "inputs": [],
      "name": "manger",
      "outputs": [
        {
          "internalType": "address",
          "name": "",
          "type": "address"
        }
      ],
      "stateMutability": "view",
      "type": "function",
      "constant": true
    },
    {
      "inputs": [
        {
          "internalType": "uint256",
          "name": "",
          "type": "uint256"
        }
      ],
      "name": "players",
      "outputs": [
        {
          "internalType": "address",
          "name": "",
          "type": "address"
        }
      ],
      "stateMutability": "view",
      "type": "function",
      "constant": true
    },
    {
      "inputs": [],
      "name": "enter",
      "outputs": [],
      "stateMutability": "payable",
      "type": "function",
      "payable": true
    },
    {
      "inputs": [],
      "name": "WinnerPlayer",
      "outputs": [],
      "stateMutability": "payable",
      "type": "function",
      "payable": true
    },
    {
      "inputs": [],
      "name": "getPlayers",
      "outputs": [
        {
          "internalType": "address[]",
          "name": "",
          "type": "address[]"
        }
      ],
      "stateMutability": "view",
      "type": "function",
      "constant": true
    }
  ],
  "bytecode": "0x608060405234801561001057600080fd5b50336000806101000a81548173ffffffffffffffffffffffffffffffffffffffff021916908373ffffffffffffffffffffffffffffffffffffffff160217905550610930806100606000396000f3fe60806040526004361061004a5760003560e01c80631b0b6c241461004f5780638b5b9ccc14610059578063c0da38ce14610084578063e97dcb62146100af578063f71d96cb146100b9575b600080fd5b6100576100f6565b005b34801561006557600080fd5b5061006e6102a4565b60405161007b91906106d9565b60405180910390f35b34801561009057600080fd5b50610099610332565b6040516100a691906106be565b60405180910390f35b6100b7610356565b005b3480156100c557600080fd5b506100e060048036038101906100db919061050e565b6103d0565b6040516100ed91906106be565b60405180910390f35b60008054906101000a900473ffffffffffffffffffffffffffffffffffffffff1673ffffffffffffffffffffffffffffffffffffffff163373ffffffffffffffffffffffffffffffffffffffff161461014e57600080fd5b600060018054905061015e61040f565b6101689190610834565b90506000600182815481106101a6577f4e487b7100000000000000000000000000000000000000000000000000000000600052603260045260246000fd5b9060005260206000200160009054906101000a900473ffffffffffffffffffffffffffffffffffffffff169050600067ffffffffffffffff811115610214577f4e487b7100000000000000000000000000000000000000000000000000000000600052604160045260246000fd5b6040519080825280602002602001820160405280156102425781602001602082028036833780820191505090505b5060019080519060200190610258929190610452565b508073ffffffffffffffffffffffffffffffffffffffff166108fc479081150290604051600060405180830381858888f1935050505015801561029f573d6000803e3d6000fd5b505050565b6060600180548060200260200160405190810160405280929190818152602001828054801561032857602002820191906000526020600020905b8160009054906101000a900473ffffffffffffffffffffffffffffffffffffffff1673ffffffffffffffffffffffffffffffffffffffff16815260200190600101908083116102de575b5050505050905090565b60008054906101000a900473ffffffffffffffffffffffffffffffffffffffff1681565b671bc16d674ec8000034101561036b57600080fd5b6001339080600181540180825580915050600190039060005260206000200160009091909190916101000a81548173ffffffffffffffffffffffffffffffffffffffff021916908373ffffffffffffffffffffffffffffffffffffffff160217905550565b600181815481106103e057600080fd5b906000526020600020016000915054906101000a900473ffffffffffffffffffffffffffffffffffffffff1681565b600060014361041e919061076c565b4042600160405160200161043493929190610685565b6040516020818303038152906040528051906020012060001c905090565b8280548282559060005260206000209081019282156104cb579160200282015b828111156104ca5782518260006101000a81548173ffffffffffffffffffffffffffffffffffffffff021916908373ffffffffffffffffffffffffffffffffffffffff16021790555091602001919060010190610472565b5b5090506104d891906104dc565b5090565b5b808211156104f55760008160009055506001016104dd565b5090565b600081359050610508816108e3565b92915050565b60006020828403121561052057600080fd5b600061052e848285016104f9565b91505092915050565b60006105438383610567565b60208301905092915050565b600061055b8383610585565b60208301905092915050565b610570816107c0565b82525050565b61057f816107c0565b82525050565b61058e816107c0565b82525050565b600061059f82610720565b6105a98185610750565b93506105b4836106fb565b8060005b838110156105e55781516105cc8882610537565b97506105d783610736565b9250506001810190506105b8565b5085935050505092915050565b60006105fd8261072b565b6106078185610761565b93506106128361070b565b8060005b8381101561064a57610627826108c3565b610631888261054f565b975061063c83610743565b925050600181019050610616565b5085935050505092915050565b610668610663826107d2565b610820565b82525050565b61067f61067a826107fc565b61082a565b82525050565b60006106918286610657565b6020820191506106a1828561066e565b6020820191506106b182846105f2565b9150819050949350505050565b60006020820190506106d36000830184610576565b92915050565b600060208201905081810360008301526106f38184610594565b905092915050565b6000819050602082019050919050565b60008190508160005260206000209050919050565b600081519050919050565b600081549050919050565b6000602082019050919050565b6000600182019050919050565b600082825260208201905092915050565b600081905092915050565b6000610777826107fc565b9150610782836107fc565b92508282101561079557610794610865565b5b828203905092915050565b600073ffffffffffffffffffffffffffffffffffffffff82169050919050565b60006107cb826107dc565b9050919050565b6000819050919050565b600073ffffffffffffffffffffffffffffffffffffffff82169050919050565b6000819050919050565b6000610819610814836108d6565b6107a0565b9050919050565b6000819050919050565b6000819050919050565b600061083f826107fc565b915061084a836107fc565b92508261085a57610859610894565b5b828206905092915050565b7f4e487b7100000000000000000000000000000000000000000000000000000000600052601160045260246000fd5b7f4e487b7100000000000000000000000000000000000000000000000000000000600052601260045260246000fd5b60006108cf8254610806565b9050919050565b60008160001c9050919050565b6108ec816107fc565b81146108f757600080fd5b5056fea2646970667358221220883994d90cdebcf6a960822a622a9c248b017352ad9e73a21b9f6dbd0a77f70b64736f6c63430008000033",
  "immutableReferences": {},
  "source": "// SPDX-License-Identifier: UNLICENSED\npragma solidity ^0.8.0;\ncontract Lottery{\n    address public  manger;\n    address[] public  players;\n   constructor() {\n        manger = msg.sender;\n    }\n    function enter()public payable {\n        require(msg.value >= 2 ether);\n        players.push(msg.sender);\n    }\n    function WinnerPlayer()public payable {\n        require(msg.sender == manger);\n        uint index= random() % players.length;\n        address winner = players[index];\n         players = new address[](0); // Reset the players array\n        payable(winner).transfer(address(this).balance);\n\n\n    }\n        function getPlayers() public view returns (address[] memory) {\n        return players;\n    }\n    function random()private view  returns(uint){\n       return uint(keccak256(abi.encodePacked(blockhash(block.number - 1), block.timestamp, players)));\n    }\n    modifier restricted() {\n        require(msg.sender == manger);\n        _;\n    }\n    //prevrandao\n\n}",
  "sourcePath": "/home/ryzen/Desktop/lottery/contracts/Lottery.sol",
  "compiler": {
    "name": "solc",
    "version": "0.8.0+commit.c7dfd78e.Emscripten.clang"
  },
  "schemaVersion": "3.4.16",
  "updatedAt": "2024-02-10T18:09:37.343Z",
  "networkType": "ethereum",
  "devdoc": {
    "kind": "dev",
    "methods": {},
    "version": 1
  },
  "userdoc": {
    "kind": "user",
    "methods": {},
    "version": 1
  }
}